{
  "contractName": "Verifier",
  "abi": [
    {
      "anonymous": false,
      "inputs": [
        {
          "indexed": false,
          "name": "",
          "type": "string"
        }
      ],
      "name": "Verified",
      "type": "event"
    },
    {
      "constant": false,
      "inputs": [
        {
          "name": "A",
          "type": "uint256[2][2]"
        },
        {
          "name": "B",
          "type": "uint256[2]"
        },
        {
          "name": "C",
          "type": "uint256[2][2]"
        },
        {
          "name": "gamma",
          "type": "uint256[2][2]"
        },
        {
          "name": "gamma_beta_1",
          "type": "uint256[2]"
        },
        {
          "name": "gamma_beta_2",
          "type": "uint256[2][2]"
        },
        {
          "name": "Z",
          "type": "uint256[2][2]"
        },
        {
          "name": "IC",
          "type": "uint256[2][]"
        }
      ],
      "name": "setVerifyingKey",
      "outputs": [],
      "payable": false,
      "stateMutability": "nonpayable",
      "type": "function"
    },
    {
      "constant": false,
      "inputs": [
        {
          "name": "a",
          "type": "uint256[2]"
        },
        {
          "name": "a_p",
          "type": "uint256[2]"
        },
        {
          "name": "b",
          "type": "uint256[2][2]"
        },
        {
          "name": "b_p",
          "type": "uint256[2]"
        },
        {
          "name": "c",
          "type": "uint256[2]"
        },
        {
          "name": "c_p",
          "type": "uint256[2]"
        },
        {
          "name": "h",
          "type": "uint256[2]"
        },
        {
          "name": "k",
          "type": "uint256[2]"
        },
        {
          "name": "input",
          "type": "uint256[]"
        }
      ],
      "name": "verifyTx",
      "outputs": [
        {
          "name": "r",
          "type": "bool"
        }
      ],
      "payable": false,
      "stateMutability": "nonpayable",
      "type": "function"
    }
  ],
  "bytecode": "0x608060405260008060006101000a81548160ff02191690831515021790555034801561002a57600080fd5b50611fb88061003a6000396000f30060806040526004361061004c576000357c0100000000000000000000000000000000000000000000000000000000900463ffffffff168063c8e6ba4d14610051578063fe22023b1461027f575b600080fd5b34801561005d57600080fd5b50610265600480360381019080806040019060028060200260405190810160405280929190826002602002808284378201915050505050919291929080604001906002806020026040519081016040528092919082600260200280828437820191505050505091929192908060800190600280602002604051908101604052809291906000905b828210156101265783826040020160028060200260405190810160405280929190826002602002808284378201915050505050815260200190600101906100e4565b5050505091929192908060400190600280602002604051908101604052809291908260026020028082843782019150505050509192919290806040019060028060200260405190810160405280929190826002602002808284378201915050505050919291929080604001906002806020026040519081016040528092919082600260200280828437820191505050505091929192908060400190600280602002604051908101604052809291908260026020028082843782019150505050509192919290806040019060028060200260405190810160405280929190826002602002808284378201915050505050919291929080359060200190820180359060200190808060200260200160405190810160405280939291908181526020018383602002808284378201915050505050509192919290505050610582565b604051808215151515815260200191505060405180910390f35b34801561028b57600080fd5b506105806004803603810190808060800190600280602002604051908101604052809291906000905b828210156102f65783826040020160028060200260405190810160405280929190826002602002808284378201915050505050815260200190600101906102b4565b50505050919291929080604001906002806020026040519081016040528092919082600260200280828437820191505050505091929192908060800190600280602002604051908101604052809291906000905b8282101561038c57838260400201600280602002604051908101604052809291908260026020028082843782019150505050508152602001906001019061034a565b5050505091929192908060800190600280602002604051908101604052809291906000905b828210156103f35783826040020160028060200260405190810160405280929190826002602002808284378201915050505050815260200190600101906103b1565b50505050919291929080604001906002806020026040519081016040528092919082600260200280828437820191505050505091929192908060800190600280602002604051908101604052809291906000905b82821015610489578382604002016002806020026040519081016040528092919082600260200280828437820191505050505081526020019060010190610447565b5050505091929192908060800190600280602002604051908101604052809291906000905b828210156104f05783826040020160028060200260405190810160405280929190826002602002808284378201915050505050815260200190600101906104ae565b50505050919291929080359060200190820180359060200190808060200260200160405190810160405280939291908181526020016000905b8282101561056e578484839050604002016002806020026040519081016040528092919082600260200280828437820191505050505081526020019060010190610529565b5050505050919291929050505061099c565b005b600061058c611da4565b606060008060009054906101000a900460ff1615156105aa57600080fd5b60408051908101604052808e60006002811015156105c457fe5b602002015181526020018e60016002811015156105dd57fe5b6020020151815250836000018190525060408051908101604052808d600060028110151561060757fe5b602002015181526020018d600160028110151561062057fe5b60200201518152508360200181905250604080519081016040528060408051908101604052808e600060028110151561065557fe5b6020020151600060028110151561066857fe5b602002015181526020018e600060028110151561068157fe5b6020020151600160028110151561069457fe5b6020020151815250815260200160408051908101604052808e60016002811015156106bb57fe5b602002015160006002811015156106ce57fe5b602002015181526020018e60016002811015156106e757fe5b602002015160016002811015156106fa57fe5b6020020151815250815250836040018190525060408051908101604052808b600060028110151561072757fe5b602002015181526020018b600160028110151561074057fe5b6020020151815250836060018190525060408051908101604052808a600060028110151561076a57fe5b602002015181526020018a600160028110151561078357fe5b6020020151815250836080018190525060408051908101604052808960006002811015156107ad57fe5b602002015181526020018960016002811015156107c657fe5b60200201518152508360a0018190525060408051908101604052808860006002811015156107f057fe5b6020020151815260200188600160028110151561080957fe5b60200201518152508360e00181905250604080519081016040528087600060028110151561083357fe5b6020020151815260200187600160028110151561084c57fe5b60200201518152508360c00181905250845160405190808252806020026020018201604052801561088c5781602001602082028038833980820191505090505b509150600090505b84518110156108de5784818151811015156108ab57fe5b9060200190602002015182828151811015156108c357fe5b90602001906020020181815250508080600101915050610894565b60006108ea838561106d565b1415610987577f3f3cfdb26fb5f9f1786ab4f1a1f9cd4c0b5e726cbdfc26e495261731aad44e396040518080602001828103825260228152602001807f5472616e73616374696f6e207375636365737366756c6c79207665726966696581526020017f642e00000000000000000000000000000000000000000000000000000000000081525060400191505060405180910390a16001935061098c565b600093505b5050509998505050505050505050565b6000604080519081016040528060408051908101604052808c60006002811015156109c357fe5b602002015160006002811015156109d657fe5b602002015181526020018c60006002811015156109ef57fe5b60200201516001600281101515610a0257fe5b6020020151815250815260200160408051908101604052808c6001600281101515610a2957fe5b60200201516000600281101515610a3c57fe5b602002015181526020018c6001600281101515610a5557fe5b60200201516001600281101515610a6857fe5b60200201518152508152506001600001600082015181600001906002610a8f929190611e1a565b50602082015181600201906002610aa7929190611e1a565b509050506040805190810160405280896000600281101515610ac557fe5b60200201518152602001896001600281101515610ade57fe5b602002015181525060016004016000820151816000015560208201518160010155905050604080519081016040528060408051908101604052808a6000600281101515610b2757fe5b60200201516000600281101515610b3a57fe5b602002015181526020018a6000600281101515610b5357fe5b60200201516001600281101515610b6657fe5b6020020151815250815260200160408051908101604052808a6001600281101515610b8d57fe5b60200201516000600281101515610ba057fe5b602002015181526020018a6001600281101515610bb957fe5b60200201516001600281101515610bcc57fe5b60200201518152508152506001600601600082015181600001906002610bf3929190611e1a565b50602082015181600201906002610c0b929190611e1a565b5090505060408051908101604052806040805190810160405280896000600281101515610c3457fe5b60200201516000600281101515610c4757fe5b60200201518152602001896000600281101515610c6057fe5b60200201516001600281101515610c7357fe5b602002015181525081526020016040805190810160405280896001600281101515610c9a57fe5b60200201516000600281101515610cad57fe5b60200201518152602001896001600281101515610cc657fe5b60200201516001600281101515610cd957fe5b60200201518152508152506001600a01600082015181600001906002610d00929190611e1a565b50602082015181600201906002610d18929190611e1a565b509050506040805190810160405280866000600281101515610d3657fe5b60200201518152602001866001600281101515610d4f57fe5b60200201518152506001600e01600082015181600001556020820151816001015590505060408051908101604052806040805190810160405280876000600281101515610d9857fe5b60200201516000600281101515610dab57fe5b60200201518152602001876000600281101515610dc457fe5b60200201516001600281101515610dd757fe5b602002015181525081526020016040805190810160405280876001600281101515610dfe57fe5b60200201516000600281101515610e1157fe5b60200201518152602001876001600281101515610e2a57fe5b60200201516001600281101515610e3d57fe5b60200201518152508152506001601001600082015181600001906002610e64929190611e1a565b50602082015181600201906002610e7c929190611e1a565b5090505060408051908101604052806040805190810160405280866000600281101515610ea557fe5b60200201516000600281101515610eb857fe5b60200201518152602001866000600281101515610ed157fe5b60200201516001600281101515610ee457fe5b602002015181525081526020016040805190810160405280866001600281101515610f0b57fe5b60200201516000600281101515610f1e57fe5b60200201518152602001866001600281101515610f3757fe5b60200201516001600281101515610f4a57fe5b60200201518152508152506001601401600082015181600001906002610f71929190611e1a565b50602082015181600201906002610f89929190611e1a565b50905050600090505b81518110156110485760408051908101604052808383815181101515610fb457fe5b906020019060200201516000600281101515610fcc57fe5b602002015181526020018383815181101515610fe457fe5b906020019060200201516001600281101515610ffc57fe5b602002015181525060016018018281548110151561101657fe5b906000526020600020906002020160008201518160000155602082015181600101559050508080600101915050610f92565b60016000806101000a81548160ff021916908315150217905550505050505050505050565b6000611077611e5a565b6000600160180180549050600186510114151561109357600080fd5b60408051908101604052806000815260200160008152509150600090505b845181101561113457611125826111206001601801600185018154811015156110d657fe5b906000526020600020906002020160408051908101604052908160008201548152602001600182015481525050888581518110151561111157fe5b90602001906020020151611601565b61169d565b915080806001019150506110b1565b61117d826001601801600081548110151561114b57fe5b90600052602060002090600202016040805190810160405290816000820154815260200160018201548152505061169d565b915061123b84600001516001600001604080519081016040529081600082016002806020026040519081016040528092919082600280156111d3576020028201915b8154815260200190600101908083116111bf575b5050505050815260200160028201600280602002604051908101604052809291908260028015611218576020028201915b815481526020019060010190808311611204575b50505050508152505061122e876020015161175a565b6112366117f5565b6118bf565b151561124a57600192506115f9565b6112906001600401604080519081016040529081600082015481526020016001820154815250508560400151611283876060015161175a565b61128b6117f5565b6118bf565b151561129f57600292506115f9565b61135b84608001516001600601604080519081016040529081600082016002806020026040519081016040528092919082600280156112f3576020028201915b8154815260200190600101908083116112df575b5050505050815260200160028201600280602002604051908101604052809291908260028015611338576020028201915b815481526020019060010190808311611324575b50505050508152505061134e8760a0015161175a565b6113566117f5565b6118bf565b151561136a57600392506115f9565b6114ff8460c001516001600a01604080519081016040529081600082016002806020026040519081016040528092919082600280156113be576020028201915b8154815260200190600101908083116113aa575b5050505050815260200160028201600280602002604051908101604052809291908260028015611403576020028201915b8154815260200190600101908083116113ef575b50505050508152505061142f61142a866114258a600001518b6080015161169d565b61169d565b61175a565b60016010016040805190810160405290816000820160028060200260405190810160405280929190826002801561147b576020028201915b815481526020019060010190808311611467575b50505050508152602001600282016002806020026040519081016040528092919082600280156114c0576020028201915b8154815260200190600101908083116114ac575b5050505050815250506114f56001600e016040805190810160405290816000820154815260200160018201548152505061175a565b89604001516119ca565b151561150e57600492506115f9565b6115e561151f83866000015161169d565b85604001516115318760e0015161175a565b60016014016040805190810160405290816000820160028060200260405190810160405280929190826002801561157d576020028201915b815481526020019060010190808311611569575b50505050508152602001600282016002806020026040519081016040528092919082600280156115c2576020028201915b8154815260200190600101908083116115ae575b5050505050815250506115d8896080015161175a565b6115e06117f5565b6119ca565b15156115f457600592506115f9565b600092505b505092915050565b611609611e5a565b611611611e74565b6000846000015182600060038110151561162757fe5b602002018181525050846020015182600160038110151561164457fe5b6020020181815250508382600260038110151561165d57fe5b602002018181525050606083608084600060076107d05a03f19050806000811461168657611688565bfe5b5080151561169557600080fd5b505092915050565b6116a5611e5a565b6116ad611e97565b600084600001518260006004811015156116c357fe5b60200201818152505084602001518260016004811015156116e057fe5b60200201818152505083600001518260026004811015156116fd57fe5b602002018181525050836020015182600360048110151561171a57fe5b60200201818152505060608360c084600060066107d05a03f19050806000811461174357611745565bfe5b5080151561175257600080fd5b505092915050565b611762611e5a565b60007f30644e72e131a029b85045b68181585d97816a916871ca8d3c208c16d87cfd4790506000836000015114801561179f575060008360200151145b156117c257604080519081016040528060008152602001600081525091506117ef565b6040805190810160405280846000015181526020018285602001518115156117e657fe5b06830381525091505b50919050565b6117fd611eba565b604080519081016040528060408051908101604052807f198e9393920d483a7260bfb731fb5d25f1aa493335a9e71297e485b7aef312c281526020017f1800deef121f1e76426a00665e5c4479674322d4f75edadd46debd5cd992f6ed815250815260200160408051908101604052807f090689d0585ff075ec9e99ad690c3395bc4b313370b38ef355acdadcd122975b81526020017f12c85ea5db8c6deb4aab71808dcb408fe3d1e7690c43d37b4ce6cc0166fa7daa815250815250905090565b600060608060026040519080825280602002602001820160405280156118ff57816020015b6118ec611ee1565b8152602001906001900390816118e45790505b509150600260405190808252806020026020018201604052801561193d57816020015b61192a611efb565b8152602001906001900390816119225790505b5090508682600081518110151561195057fe5b906020019060200201819052508482600181518110151561196d57fe5b906020019060200201819052508581600081518110151561198a57fe5b90602001906020020181905250838160018151811015156119a757fe5b906020019060200201819052506119be8282611b11565b92505050949350505050565b60006060806003604051908082528060200260200182016040528015611a0a57816020015b6119f7611ee1565b8152602001906001900390816119ef5790505b5091506003604051908082528060200260200182016040528015611a4857816020015b611a35611efb565b815260200190600190039081611a2d5790505b50905088826000815181101515611a5b57fe5b9060200190602002018190525086826001815181101515611a7857fe5b9060200190602002018190525084826002815181101515611a9557fe5b9060200190602002018190525087816000815181101515611ab257fe5b9060200190602002018190525085816001815181101515611acf57fe5b9060200190602002018190525083816002815181101515611aec57fe5b90602001906020020181905250611b038282611b11565b925050509695505050505050565b600080600060606000611b22611f22565b600087518951141515611b3457600080fd5b8851955060068602945084604051908082528060200260200182016040528015611b6d5781602001602082028038833980820191505090505b509350600092505b85831015611d4a578883815181101515611b8b57fe5b90602001906020020151600001518460006006860201815181101515611bad57fe5b90602001906020020181815250508883815181101515611bc957fe5b90602001906020020151602001518460016006860201815181101515611beb57fe5b90602001906020020181815250508783815181101515611c0757fe5b90602001906020020151600001516000600281101515611c2357fe5b60200201518460026006860201815181101515611c3c57fe5b90602001906020020181815250508783815181101515611c5857fe5b90602001906020020151600001516001600281101515611c7457fe5b60200201518460036006860201815181101515611c8d57fe5b90602001906020020181815250508783815181101515611ca957fe5b90602001906020020151602001516000600281101515611cc557fe5b60200201518460046006860201815181101515611cde57fe5b90602001906020020181815250508783815181101515611cfa57fe5b90602001906020020151602001516001600281101515611d1657fe5b60200201518460056006860201815181101515611d2f57fe5b90602001906020020181815250508280600101935050611b75565b6020826020870260208701600060086107d05a03f190508060008114611d6f57611d71565bfe5b50801515611d7e57600080fd5b6000826000600181101515611d8f57fe5b60200201511415965050505050505092915050565b61024060405190810160405280611db9611ee1565b8152602001611dc6611ee1565b8152602001611dd3611efb565b8152602001611de0611ee1565b8152602001611ded611ee1565b8152602001611dfa611ee1565b8152602001611e07611ee1565b8152602001611e14611ee1565b81525090565b8260028101928215611e49579160200282015b82811115611e48578251825591602001919060010190611e2d565b5b509050611e569190611f45565b5090565b604080519081016040528060008152602001600081525090565b606060405190810160405280600390602082028038833980820191505090505090565b608060405190810160405280600490602082028038833980820191505090505090565b608060405190810160405280611ece611f6a565b8152602001611edb611f6a565b81525090565b604080519081016040528060008152602001600081525090565b608060405190810160405280611f0f611f6a565b8152602001611f1c611f6a565b81525090565b602060405190810160405280600190602082028038833980820191505090505090565b611f6791905b80821115611f63576000816000905550600101611f4b565b5090565b90565b60408051908101604052806002906020820280388339808201915050905050905600a165627a7a72305820634586ee115ac4507b5ac71ec5f8d1722603ae0070ba7c84cbbc30721b744c3e0029",
  "source": "pragma solidity ^0.4.14;\nlibrary Pairing {\n    struct G1Point {\n        uint X;\n        uint Y;\n    }\n    // Encoding of field elements is: X[0] * z + X[1]\n    struct G2Point {\n        uint[2] X;\n        uint[2] Y;\n    }\n    /// @return the generator of G1\n    function P1() internal returns (G1Point) {\n        return G1Point(1, 2);\n    }\n    /// @return the generator of G2\n    function P2() internal returns (G2Point) {\n        return G2Point(\n            [11559732032986387107991004021392285783925812861821192530917403151452391805634,\n             10857046999023057135944570762232829481370756359578518086990519993285655852781],\n            [4082367875863433681332203403145435568316851327593401208105741076214120093531,\n             8495653923123431417604973247489272438418190587263600148770280649306958101930]\n        );\n    }\n    /// @return the negation of p, i.e. p.add(p.negate()) should be zero.\n    function negate(G1Point p) internal returns (G1Point) {\n        // The prime q in the base field F_q for G1\n        uint q = 21888242871839275222246405745257275088696311157297823662689037894645226208583;\n        if (p.X == 0 && p.Y == 0)\n            return G1Point(0, 0);\n        return G1Point(p.X, q - (p.Y % q));\n    }\n    /// @return the sum of two points of G1\n    function add(G1Point p1, G1Point p2) internal returns (G1Point r) {\n        uint[4] memory input;\n        input[0] = p1.X;\n        input[1] = p1.Y;\n        input[2] = p2.X;\n        input[3] = p2.Y;\n        bool success;\n        assembly {\n            success := call(sub(gas, 2000), 6, 0, input, 0xc0, r, 0x60)\n            // Use \"invalid\" to make gas estimation work\n            switch success case 0 { invalid }\n        }\n        require(success);\n    }\n    /// @return the product of a point on G1 and a scalar, i.e.\n    /// p == p.mul(1) and p.add(p) == p.mul(2) for all points p.\n    function mul(G1Point p, uint s) internal returns (G1Point r) {\n        uint[3] memory input;\n        input[0] = p.X;\n        input[1] = p.Y;\n        input[2] = s;\n        bool success;\n        assembly {\n            success := call(sub(gas, 2000), 7, 0, input, 0x80, r, 0x60)\n            // Use \"invalid\" to make gas estimation work\n            switch success case 0 { invalid }\n        }\n        require (success);\n    }\n    /// @return the result of computing the pairing check\n    /// e(p1[0], p2[0]) *  .... * e(p1[n], p2[n]) == 1\n    /// For example pairing([P1(), P1().negate()], [P2(), P2()]) should\n    /// return true.\n    function pairing(G1Point[] p1, G2Point[] p2) internal returns (bool) {\n        require(p1.length == p2.length);\n        uint elements = p1.length;\n        uint inputSize = elements * 6;\n        uint[] memory input = new uint[](inputSize);\n        for (uint i = 0; i < elements; i++)\n        {\n            input[i * 6 + 0] = p1[i].X;\n            input[i * 6 + 1] = p1[i].Y;\n            input[i * 6 + 2] = p2[i].X[0];\n            input[i * 6 + 3] = p2[i].X[1];\n            input[i * 6 + 4] = p2[i].Y[0];\n            input[i * 6 + 5] = p2[i].Y[1];\n        }\n        uint[1] memory out;\n        bool success;\n        assembly {\n            success := call(sub(gas, 2000), 8, 0, add(input, 0x20), mul(inputSize, 0x20), out, 0x20)\n            // Use \"invalid\" to make gas estimation work\n            switch success case 0 { invalid }\n        }\n        require(success);\n        return out[0] != 0;\n    }\n    /// Convenience method for a pairing check for two pairs.\n    function pairingProd2(G1Point a1, G2Point a2, G1Point b1, G2Point b2) internal returns (bool) {\n        G1Point[] memory p1 = new G1Point[](2);\n        G2Point[] memory p2 = new G2Point[](2);\n        p1[0] = a1;\n        p1[1] = b1;\n        p2[0] = a2;\n        p2[1] = b2;\n        return pairing(p1, p2);\n    }\n    /// Convenience method for a pairing check for three pairs.\n    function pairingProd3(\n            G1Point a1, G2Point a2,\n            G1Point b1, G2Point b2,\n            G1Point c1, G2Point c2\n    ) internal returns (bool) {\n        G1Point[] memory p1 = new G1Point[](3);\n        G2Point[] memory p2 = new G2Point[](3);\n        p1[0] = a1;\n        p1[1] = b1;\n        p1[2] = c1;\n        p2[0] = a2;\n        p2[1] = b2;\n        p2[2] = c2;\n        return pairing(p1, p2);\n    }\n    /// Convenience method for a pairing check for four pairs.\n    function pairingProd4(\n            G1Point a1, G2Point a2,\n            G1Point b1, G2Point b2,\n            G1Point c1, G2Point c2,\n            G1Point d1, G2Point d2\n    ) internal returns (bool) {\n        G1Point[] memory p1 = new G1Point[](4);\n        G2Point[] memory p2 = new G2Point[](4);\n        p1[0] = a1;\n        p1[1] = b1;\n        p1[2] = c1;\n        p1[3] = d1;\n        p2[0] = a2;\n        p2[1] = b2;\n        p2[2] = c2;\n        p2[3] = d2;\n        return pairing(p1, p2);\n    }\n}\ncontract Verifier {\n    using Pairing for *;\n    bool verifyingKeySet = false;\n    struct VerifyingKey {\n        Pairing.G2Point A;\n        Pairing.G1Point B;\n        Pairing.G2Point C;\n        Pairing.G2Point gamma;\n        Pairing.G1Point gammaBeta1;\n        Pairing.G2Point gammaBeta2;\n        Pairing.G2Point Z;\n        Pairing.G1Point[] IC;\n    }\n    VerifyingKey vk;\n    struct Proof {\n        Pairing.G1Point A;\n        Pairing.G1Point A_p;\n        Pairing.G2Point B;\n        Pairing.G1Point B_p;\n        Pairing.G1Point C;\n        Pairing.G1Point C_p;\n        Pairing.G1Point K;\n        Pairing.G1Point H;\n    }\n    function verify(uint[] input, Proof proof) internal returns (uint) {\n        require(input.length + 1 == vk.IC.length);\n        // Compute the linear combination vk_x\n        Pairing.G1Point memory vk_x = Pairing.G1Point(0, 0);\n        for (uint i = 0; i < input.length; i++)\n            vk_x = Pairing.add(vk_x, Pairing.mul(vk.IC[i + 1], input[i]));\n        vk_x = Pairing.add(vk_x, vk.IC[0]);\n        if (!Pairing.pairingProd2(proof.A, vk.A, Pairing.negate(proof.A_p), Pairing.P2())) return 1;\n        if (!Pairing.pairingProd2(vk.B, proof.B, Pairing.negate(proof.B_p), Pairing.P2())) return 2;\n        if (!Pairing.pairingProd2(proof.C, vk.C, Pairing.negate(proof.C_p), Pairing.P2())) return 3;\n        if (!Pairing.pairingProd3(\n            proof.K, vk.gamma,\n            Pairing.negate(Pairing.add(vk_x, Pairing.add(proof.A, proof.C))), vk.gammaBeta2,\n            Pairing.negate(vk.gammaBeta1), proof.B\n        )) return 4;\n        if (!Pairing.pairingProd3(\n                Pairing.add(vk_x, proof.A), proof.B,\n                Pairing.negate(proof.H), vk.Z,\n                Pairing.negate(proof.C), Pairing.P2()\n        )) return 5;\n        return 0;\n    }\n    function setVerifyingKey(\n            uint[2][2] A,\n            uint[2] B,\n            uint[2][2] C,\n            uint[2][2] gamma,\n            uint[2] gamma_beta_1,\n            uint[2][2] gamma_beta_2,\n            uint[2][2] Z,\n            uint[2][] IC) {\n        vk.A = Pairing.G2Point([A[0][0], A[0][1]], [A[1][0], A[1][1]]);\n        vk.B = Pairing.G1Point(B[0], B[1]);\n        vk.C = Pairing.G2Point([C[0][0], C[0][1]], [C[1][0], C[1][1]]);\n        vk.gamma = Pairing.G2Point([gamma[0][0], gamma[0][1]], [gamma[1][0], gamma[1][1]]);\n        vk.gammaBeta1 = Pairing.G1Point(gamma_beta_1[0], gamma_beta_1[1]);\n        vk.gammaBeta2 = Pairing.G2Point([gamma_beta_2[0][0], gamma_beta_2[0][1]], [gamma_beta_2[1][0], gamma_beta_2[1][1]]);\n        vk.Z = Pairing.G2Point([Z[0][0], Z[0][1]], [Z[1][0], Z[1][1]]);\n        for(uint i=0; i<IC.length; i++) {\n            vk.IC[i] = Pairing.G1Point(IC[i][0], IC[i][1]);\n        }\n        verifyingKeySet = true;\n    }\n    event Verified(string);\n    function verifyTx(\n            uint[2] a,\n            uint[2] a_p,\n            uint[2][2] b,\n            uint[2] b_p,\n            uint[2] c,\n            uint[2] c_p,\n            uint[2] h,\n            uint[2] k,\n            uint[] input\n        ) returns (bool r) {\n        require(verifyingKeySet);\n        Proof memory proof;\n        proof.A = Pairing.G1Point(a[0], a[1]);\n        proof.A_p = Pairing.G1Point(a_p[0], a_p[1]);\n        proof.B = Pairing.G2Point([b[0][0], b[0][1]], [b[1][0], b[1][1]]);\n        proof.B_p = Pairing.G1Point(b_p[0], b_p[1]);\n        proof.C = Pairing.G1Point(c[0], c[1]);\n        proof.C_p = Pairing.G1Point(c_p[0], c_p[1]);\n        proof.H = Pairing.G1Point(h[0], h[1]);\n        proof.K = Pairing.G1Point(k[0], k[1]);\n        uint[] memory inputValues = new uint[](input.length);\n        for(uint i = 0; i < input.length; i++){\n            inputValues[i] = input[i];\n        }\n        if (verify(inputValues, proof) == 0) {\n            Verified(\"Transaction successfully verified.\");\n            return true;\n        } else {\n            return false;\n        }\n    }\n}",
  "sourcePath": "/home/sam/snark/libsnark-tutorial/ethereum/contracts/Verifier.sol",
  "compiler": {
    "name": "solc",
    "version": "0.4.24+commit.e67f0147.Emscripten.clang"
  },
  "schemaVersion": "2.0.1",
  "updatedAt": "2018-06-26T17:21:13.071Z"
}